:100000000C9477010C94A8010C94A8010C94A801FD
:100010000C94A8010C94A8010C94A8010C94A801BC
:100020000C94A8010C94A8010C94A8010C94A801AC
:100030000C94A8010C94A8010C94A8010C94A8019C
:100040000C94A8010C94A8010C94A8010C94A8018C
:100050000C94A8010C94A8010C94A8010C94A3047E
:100060000C94A8010C9417050C94ED040C94A801B1
:100070000C94A8010C94A8010C94A8010C94A8015C
:100080000C94A8010C94A8010C94A8010C94A8014C
:100090000C94A8010C94A8010C94A8010C94A8013C
:1000A0000C94A8010C94A8010C94A8010C94A8012C
:1000B0000C94A8010C94A8010C94A8010C94A8011C
:1000C0000C94A8010C94A8010C94A8010C94A8010C
:1000D0000C94A8010C94A8010C94A8010C94A801FC
:1000E0000C94A8010C94F9010C94F5010C94BA023B
:1000F0000C942C020C94C9020C9426020C9422023B
:100100000C941E020C94DF010C94F1010C94060275
:100110000C948D020C940A020C9423030C94180284
:100120000C9410020C9414020C94DA010C947606D0
:100130000C9430020C94FD010C94DD020C948B03A2
:100140000C9400020C94EB02000021002400270014
:100150002A002D00300033000101000004010701D6
:100160000A01202855415254302070696E2C2070AD
:1001700065722D70696E206C6F6767696E67206CA1
:10018000696D697465642900202D3E20005B53571A
:100190004545505D2000202D3E20005B53574545CE
:1001A000505D20005B47524F55505D20005B424F31
:1001B0004F545D2053657269616C20626175643AC9
:1001C00020005B424F4F545D204D65676120706990
:1001D0006E207377656570207374617274696E67E1
:1001E000005B4359434C455D20436F6D706C6574F3
:1001F00065005B4359434C455D20426567696E006D
:1002000000002200250028002B002E0031003400C1
:1002100002010000050108010B01050505050705A0
:1002200008080808020202020A0A08080404040472
:10023000010101010101010103030303030303039E
:10024000040707070C0C0C0C0C0C0C0C020202022D
:1002500006060606060606060B0B0B0B0B0B0B0B16
:1002600001021020200808102040102040800201C8
:1002700002010804020101020408102040808040AD
:1002800020100804020180040201804020100804AC
:10029000020108040201010204081020408001024A
:1002A00004081020408000000A0B02090C0D0E0803
:1002B000070304010000000000000000000000002F
:1002C000000000000000000000000000000000002E
:1002D00000001211100000000000000000000000EB
:1002E000000000000000000000000000760611245D
:1002F0001FBECFEFD1E2DEBFCDBF00E00CBF14E0E8
:10030000A0E0B2E0EEE9FDE000E00BBF02C0079024
:100310000D92AE39B107D9F725E0AEE9B4E001C0DE
:100320001D92A434B207E1F711E0C7E7D1E000E085
:1003300006C021970109802FFE010E94C506C6371D
:10034000D10780E00807A9F70E944D050C94CD065F
:100350000C940000282F30E0F901EA55FD4F9491EC
:10036000F901E05AFD4F4491265E3D4FF901249179
:10037000222309F435C0992311F191509231F8F4F8
:10038000E92FF0E08827E853FE4F8F4F0C94C50605
:10039000F901FD01DA01F101F501DF0100020602B8
:1003A0000A021002140218021E022202DF012602B3
:1003B0002C023002809180008F7780938000E22FA2
:1003C000F0E0EE0FFF1FE050FE4FA591B4918FB704
:1003D000F894EC91611148C040954E234C938FBF27
:1003E0000895809180008F7DE8CF80918000877F85
:1003F000E4CF84B58F7784BDE2CF84B58F7DFBCF0A
:100400008091B0008F778093B000D9CF8091B000F9
:100410008F7DF9CF809190008F7780939000CFCF20
:10042000809190008F7DF9CF80919000877FF5CFEC
:100430008091A0008F778093A000C1CF8091A00011
:100440008F7DF9CF8091A000877FF5CF809120012B
:100450008F7780932001B3CF809120018F7DF9CFDA
:1004600080912001877FF5CF4E2BB8CF3FB7F8940E
:100470008091A3049091A404A091A504B091A60436
:1004800026B5A89B05C02F3F19F00196A11DB11DEF
:100490003FBFBA2FA92F982F8827BC01CD01620F2B
:1004A000711D811D911D42E0660F771F881F991FE6
:1004B0004A95D1F708958F929F92AF92BF92CF92B3
:1004C000DF92EF92FF924B015C010E9436026B01BA
:1004D0007C010E9436026C197D098E099F09683ED5
:1004E000734081059105A8F321E0821A9108A108C3
:1004F000B10888EEC80E83E0D81EE11CF11C8114FF
:100500009104A104B10429F7FF90EF90DF90CF9000
:10051000BF90AF909F908F900895AF92BF92CF926F
:10052000DF92EF92FF920F931F93CF93DF936C01B3
:100530007B018B01040F151FEB015E01AE18BF0894
:10054000C017D10759F06991D601ED91FC91019046
:10055000F081E02DC6011995892B79F7C501DF914E
:10056000CF911F910F91FF90EF90DF90CF90BF90B0
:10057000AF900895FC01538D448D252F30E0842FDA
:1005800090E0821B930B541710F0CF9608950197BB
:100590000895FC01918D828D981761F0A28DAE0FA8
:1005A000BF2FB11D5D968C91928D9F5F9F73928F2F
:1005B00090E008958FEF9FEF0895FC01918D828D5B
:1005C000981731F0828DE80FF11D858D90E0089528
:1005D0008FEF9FEF0895FC01918D228D892F90E080
:1005E000805C9F4F821B91098F739927089587EA3A
:1005F00094E00E94EB0221E0892B09F420E0822F95
:100600000895FC01A48DA80FB92FB11DA35ABF4FA7
:100610002C91848D90E001968F739927848FA68901
:10062000B7892C93A089B1898C91837080648C9355
:10063000938D848D981306C00288F389E02D808104
:100640008F7D80830895EF92FF920F931F93CF9336
:10065000DF93EC0181E0888F9B8D8C8D98131AC0FD
:10066000E889F989808185FF15C09FB7F894EE89E4
:10067000FF896083E889F989808183708064808341
:100680009FBF81E090E0DF91CF911F910F91FF908C
:10069000EF900895F62E0B8D10E00F5F1F4F0F7334
:1006A0001127E02E8C8D8E110CC00FB607FCFACFEF
:1006B000E889F989808185FFF5CFCE010E94010389
:1006C000F1CFEB8DEC0FFD2FF11DE35AFF4FF082C0
:1006D0009FB7F8940B8FEA89FB8980818062CFCF26
:1006E0000F931F93CF93DF938C01D0E0C0E0F8010C
:1006F000EC0FFD1F6491662341F087EA94E00E94AD
:100700002303892B11F02196F2CFCE01DF91CF91F7
:100710001F910F910895CF93DF93EC01888D88236B
:10072000B9F0AA89BB89E889F9898C9185FD03C054
:10073000808186FD0DC00FB607FCF7CF8C9185FF39
:10074000F2CF808185FFEDCFCE010E940103E9CF7A
:10075000DF91CF91089580E090E0892B29F00E94ED
:10076000F70281110E94000080E090E0892B49F09F
:1007700080E090E0892B29F00E94000081110E9406
:10078000000080E090E0892B49F080E090E0892B28
:1007900029F00E94000081110E94000080E090E09A
:1007A000892B49F080E090E0892B29F00E9400001D
:1007B00081110C9400000895EF92FF920F931F9304
:1007C000CF93DF937B01EC0110E000E0888190E0A3
:1007D000FC01E05AFD4F2491865E9D4FFC018491FF
:1007E000882399F090E0880F991FFC01E85BFE4F89
:1007F000A591B491FC01E050FE4F859194918FB783
:10080000F894EC91E22BEC938FBF60E088810E941A
:10081000AA010F5F1F4F2396E016F106B9F6DF918C
:10082000CF911F910F91FF90EF900895FC010190DF
:100830000020E9F73197AF01481B590BBC0187EA4B
:1008400094E00C948D02CF93DF930E947003EC012F
:1008500084EE92E00E9416048C0F9D1FDF91CF91D1
:100860000895CF93DF93D0E0C0E0009719F00E9485
:100870001604EC0184EE92E00E9416048C0F9D1F7A
:10088000DF91CF910895CF92DF92EF92FF920F9375
:100890001F93CF93DF937C018B016A0184EA91E07F
:1008A0000E947003C7010E943104E80110E000E0DB
:1008B00088818230C0F58DE891E00E947003C70105
:1008C0000E94160488E891E00E94700389819A8151
:1008D000009711F00E94160482E691E00E94230422
:1008E00061E088810E94AA0168EE73E080E090E0F8
:1008F0000E945B0260E088810E94AA016CE271E0C4
:1009000080E090E00E945B020F5F1F4F2396C016AD
:10091000D10671F6DF91CF911F910F91FF90EF906B
:10092000DF90CF9008958BE991E00E947003C7019A
:100930000E94160486E991E00E94700389819A81E1
:100940000E943104CDCF1F920F920FB60F92112447
:100950002F933F938F939F93AF93BF9380919F0467
:100960009091A004A091A104B091A20430919E04A2
:1009700023E0230F2D3758F50196A11DB11D2093BB
:100980009E0480939F049093A004A093A104B0932D
:10099000A2048091A3049091A404A091A504B09115
:1009A000A6040196A11DB11D8093A3049093A404F5
:1009B000A093A504B093A604BF91AF919F918F918E
:1009C0003F912F910F900FBE0F901F90189526E822
:1009D000230F0296A11DB11DD2CF1F920F920FB609
:1009E0000F9211240BB60F922F933F934F935F9367
:1009F0006F937F938F939F93AF93BF93EF93FF93E7
:100A000087EA94E00E940103FF91EF91BF91AF91BB
:100A10009F918F917F916F915F914F913F912F9116
:100A20000F900BBE0F900FBE0F901F9018951F9246
:100A30000F920FB60F9211240BB60F922F938F9334
:100A40009F93EF93FF93E091B704F091B8048081F6
:100A5000E091BD04F091BE0482FD1DC090818091A3
:100A6000C0048F5F8F732091C104821741F0E09121
:100A7000C004F0E0E955FB4F958F8093C004FF91CF
:100A8000EF919F918F912F910F900BBE0F900FBE02
:100A90000F901F9018958081F2CFCF93DF93CDB741
:100AA000DEB7A1970FB6F894DEBF0FBECDBF789426
:100AB00084B5826084BD84B5816084BD85B5826063
:100AC00085BD85B5816085BD80916E008160809314
:100AD0006E0010928100809181008260809381007D
:100AE000809181008160809381008091800081608D
:100AF000809380008091B10084608093B1008091E8
:100B0000B00081608093B0008091910082608093FA
:100B1000910080919100816080939100809190007C
:100B20008160809390008091A10082608093A100F9
:100B30008091A10081608093A1008091A0008160DC
:100B40008093A00080912101826080932101809197
:100B50002101816080932101809120018160809337
:100B6000200180917A00846080937A0080917A00DD
:100B7000826080937A0080917A00816080937A000D
:100B800080917A00806880937A001092C10066E1BB
:100B900070E082EA92E00E94DC0360E270E082E4AE
:100BA00092E00E94DC0360E170E082E192E00E944A
:100BB000DC03E091B704F091B80482E08083E09117
:100BC000B304F091B4041082E091B504F091B6043E
:100BD00080E180831092BF04E091BB04F091BC04DB
:100BE00086E08083E091B904F091BA04808180614D
:100BF0008083E091B904F091BA0480818860808399
:100C0000E091B904F091BA04808180688083E0911A
:100C1000B904F091BA0480818F7D808362E370E033
:100C200080E090E00E945B0282EC91E00E9423044D
:100C30008DEA91E00E94700319A28E010F5D1F4F93
:100C400020E032EC41E050E08AE0882E912CA12C8B
:100C5000B12C7E018BE1E80EF11CCA01B901A5019E
:100C600094010E94A306605DF80162938F01EE1566
:100C7000FF0599F7CF010E94160484EE92E00E94CE
:100C8000160482EF91E00E94230446E150E062EAFC
:100C900072E087EE92E00E9443046AEF70E080E029
:100CA00090E00E945B0240E250E062E472E081EF7B
:100CB00092E00E9443046AEF70E080E090E00E94BE
:100CC0005B0240E150E062E172E08EEF92E00E9450
:100CD000430481EE91E00E94230468EE73E080E01B
:100CE00090E00E945B020E94AB03CBCFE7EAF4E006
:100CF0001382128288EE93E0A0E0B0E084839583B3
:100D0000A683B78384E092E09183808385EC90E0B2
:100D10009587848784EC90E09787868780EC90E0C5
:100D2000918B808B81EC90E0938B828B82EC90E0B6
:100D3000958B848B86EC90E0978B868B118E128E30
:100D4000138E148E0895A1E21A2EAA1BBB1BFD015F
:100D50000DC0AA1FBB1FEE1FFF1FA217B307E4079A
:100D6000F50720F0A21BB30BE40BF50B661F771FF2
:100D7000881F991F1A9469F76095709580959095D2
:100D80009B01AC01BD01CF010895EE0FFF1F881F2D
:0E0D90008BBF0790F691E02D1994F894FFCFD9
:100D9E000000000023038D02BA028B03EB02C9028E
:100DAE00DD02450C03441003431403421803411C97
:100DBE00034020033F24033E27033D67033C5F03AC
:100DCE003B57033A4F03394703383F033737033650
:100DDE002F03162A03173203183A031942031A4A2D
:100DEE00031B52031C5A031D62031E6A031F720368
:100DFE00207A03218203228A03239203249A032555
:100E0E00A20326AA0327B20328BA0329C2032ACAB9
:100E1E00032BD2032CDA032DE2032EEA032FF20367
:100E2E0030FA03310204320A04331204341A043540
:100E3E002204152A04143204133A04124204114AED
:100E4E00041052040F5A040E62040D6A040C6E0450
:100E5E000B72040A7604097A04087D0407AF0306B0
:100E6E008004058304048604038904028C04018F24
:100E7E00040096040D0A004C65667420736964655F
:100E8E0000506F7274206F72646572656400416EFB
:100E9E00616C6F6720686561646572004131350071
:100EAE0041313400413133004131320041313100A2
:100EBE00413130004139004138004432322F504127
:100ECE0030004432332F504131004432342F5041E0
:100EDE0032004432352F504133004432362F5041C8
:100EEE0034004432372F504135004432382F5041B0
:100EFE0036004432392F504137004433302F50439F
:100F0E0037004433312F504336004433322F504391
:100F1E0035004433332F504334004433342F504381
:100F2E0033004433352F504332004433362F504371
:100F3E0031004433372F504330004433382F504460
:100F4E0037004433392F504732004434302F504746
:100F5E0031004434312F504730004434322F504C3E
:100F6E0037004434332F504C36004434342F504C19
:100F7E0035004434352F504C34004434362F504C09
:100F8E0033004434372F504C32004434382F504CF9
:100F9E0031004434392F504C30004435302F5042FC
:100FAE0033004435312F504232004435322F5042F7
:100FBE0031004435332F504230004432312F5343E9
:100FCE004C004432302F534441004431392F525893
:100FDE0031004431382F545831004431372F525894
:100FEE0032004431362F545832004431352F525886
:100FFE0033004431342F54583300443133004431DC
:10100E00320044313100443130004439004438005C
:10101E004436004435004434004433004432004426
:0E102E00312F5458300044302F5258300000FB
:00000001FF
