:100000000C94AC000C94D4000C94D4000C94D40048
:100010000C94D4000C94D4000C94D4000C94D40010
:100020000C94D4000C94D4000C94D4000C94D40000
:100030000C94D4000C94D4000C94D4000C94D400F0
:100040000C9468030C94D4000C94D8030C94B20361
:100050000C94D4000C94D4000C94D4000C94D400D0
:100060000C94D4000C94D40000000000240027005D
:100070002A00202855415254302070696E2C20707F
:1000800065722D70696E206C6F6767696E67206C92
:10009000696D697465642900202D3E20005B53570B
:1000A0004545505D2000202D3E20005B53574545BF
:1000B000505D20005B47524F55505D20005B424F22
:1000C0004F545D2053657269616C20626175643ABA
:1000D00020005B424F4F545D204E616E6F2070696F
:1000E0006E207377656570207374617274696E67D2
:1000F000005B4359434C455D20436F6D706C6574E4
:1001000065005B4359434C455D20426567696E005D
:1001100000000000250028002B000404040404044F
:1001200004040202020202020303030303030102A6
:100130000408102040800102040810200102040875
:100140001020000000080002010000030407000066
:10015000000000000000FB0411241FBECFEFD8E018
:10016000DEBFCDBF11E0A0E0B1E0E4EAFAE002C0FA
:1001700005900D92A83BB107D9F722E0A8EBB1E0BA
:1001800001C01D92AE35B207E1F710E0CCEAD0E035
:1001900004C02197FE010E944A05CB3AD107C9F756
:1001A0000E940A040C9450050C94000090E0FC019D
:1001B000EE5BFE4F2491FC01E25DFE4F3491FC01A9
:1001C000E65EFE4FE491EE23C9F0222339F023309E
:1001D00001F1A8F4213019F1223029F1F0E0EE0FFD
:1001E000FF1FE05FFE4FA591B4918FB7F894EC919B
:1001F000611126C030953E233C938FBF0895273070
:10020000A9F02830C9F0243049F7809180008F7D13
:1002100003C0809180008F7780938000DFCF84B50A
:100220008F7784BDDBCF84B58F7DFBCF8091B0000D
:100230008F778093B000D2CF8091B0008F7DF9CFBF
:100240003E2BDACF3FB7F8948091BD019091BE016B
:10025000A091BF01B091C00126B5A89B05C02F3F5A
:1002600019F00196A11DB11D3FBFBA2FA92F982FDC
:100270008827BC01CD01620F711D811D911D42E0D7
:10028000660F771F881F991F4A95D1F708958F929F
:100290009F92AF92BF92CF92DF92EF92FF924B016B
:1002A0005C010E9422016B017C010E9422016C19F9
:1002B0007D098E099F09683E734081059105A8F369
:1002C00021E0821A9108A108B10888EEC80E83E0E7
:1002D000D81EE11CF11C81149104A104B10429F77A
:1002E000FF90EF90DF90CF90BF90AF909F908F9056
:1002F0000895AF92BF92CF92DF92EF92FF920F9349
:100300001F93CF93DF936C017B018B01040F151FAB
:10031000EB015E01AE18BF08C017D10759F0699113
:10032000D601ED91FC910190F081E02DC601099577
:10033000892B79F7C501DF91CF911F910F91FF9024
:10034000EF90DF90CF90BF90AF900895FC01538D58
:10035000448D252F30E0842F90E0821B930B54179F
:1003600010F0CF96089501970895FC01918D828D2C
:10037000981761F0A28DAE0FBF2FB11D5D968C91C5
:10038000928D9F5F9F73928F90E008958FEF9FEF04
:100390000895FC01918D828D981731F0828DE80FC0
:1003A000F11D858D90E008958FEF9FEF0895FC017A
:1003B000918D228D892F90E0805C9F4F821B910947
:1003C0008F739927089581EC91E00E94D70121E075
:1003D000892B09F420E0822F089580E090E0892B9A
:1003E00029F00E94E30181110C9400000895FC01A2
:1003F000A48DA80FB92FB11DA35ABF4F2C91848D86
:1004000090E001968F739927848FA689B7892C93E2
:10041000A089B1898C91837080648C93938D848D35
:10042000981306C00288F389E02D80818F7D808338
:100430000895EF92FF920F931F93CF93DF93EC01F8
:1004400081E0888F9B8D8C8D98131AC0E889F9897B
:10045000808185FF15C09FB7F894EE89FF8960837E
:10046000E889F98980818370806480839FBF81E0FF
:1004700090E0DF91CF911F910F91FF90EF90089541
:10048000F62E0B8D10E00F5F1F4F0F731127E02E1C
:100490008C8D8E110CC00FB607FCFACFE889F98954
:1004A000808185FFF5CFCE010E94F701F1CFEB8D62
:1004B000EC0FFD2FF11DE35AFF4FF0829FB7F89428
:1004C0000B8FEA89FB8980818062CFCF0F931F93C6
:1004D000CF93DF938C01D0E0C0E0F801EC0FFD1F5B
:1004E0006491662341F081EC91E00E941902892B0E
:1004F00011F02196F2CFCE01DF91CF911F910F9194
:100500000895CF93DF93EC01888D8823B9F0AA89F1
:10051000BB89E889F9898C9185FD03C0808186FDBE
:100520000DC00FB607FCF7CF8C9185FFF2CF80810D
:1005300085FFEDCFCE010E94F701E9CFDF91CF918A
:100540000895EF92FF920F931F93CF93DF937B0158
:10055000EC0110E000E0888190E0FC01E25DFE4FDC
:100560002491865E9E4FFC018491882399F090E04F
:10057000880F991FFC01E859FF4FA591B491FC0128
:10058000E05FFE4F859194918FB7F894EC91E22B48
:10059000EC938FBF60E088810E94D6000F5F1F4FF1
:1005A0002396E016F106B9F6DF91CF911F910F91D6
:1005B000FF90EF900895FC0101900020E9F731973A
:1005C000AF01481B590BBC0181EC91E00C947901FF
:1005D000CF93DF930E946602EC018EE491E00E94CB
:1005E000DB028C0F9D1FDF91CF910895CF93DF9396
:1005F000D0E0C0E0009719F00E94DB02EC018EE42D
:1006000091E00E94DB028C0F9D1FDF91CF91089536
:10061000CF92DF92EF92FF920F931F93CF93DF93CE
:100620007C018B016A0184EB90E00E946602C701A5
:100630000E94F602E80110E000E088818230C0F5F7
:100640008DE990E00E946602C7010E94DB0288E902
:1006500090E00E94660289819A81009711F00E94C1
:10066000DB0282E790E00E94E80261E088810E945C
:10067000D60068EE73E080E090E00E94470160E001
:1006800088810E94D6006CE271E080E090E00E94D8
:1006900047010F5F1F4F2396C016D10671F6DF91F9
:1006A000CF911F910F91FF90EF90DF90CF90089521
:1006B0008BEA90E00E946602C7010E94DB0286EA94
:1006C00090E00E94660289819A810E94F602CDCF55
:1006D0001F920F920FB60F9211242F933F938F9377
:1006E0009F93AF93BF938091B9019091BA01A0916C
:1006F000BB01B091BC013091B80123E0230F2D372D
:1007000058F50196A11DB11D2093B8018093B90140
:100710009093BA01A093BB01B093BC018091BD013D
:100720009091BE01A091BF01B091C0010196A11DA1
:10073000B11D8093BD019093BE01A093BF01B09302
:10074000C001BF91AF919F918F913F912F910F90D9
:100750000FBE0F901F90189526E8230F0296A11D3B
:10076000B11DD2CF1F920F920FB60F9211242F936B
:100770003F934F935F936F937F938F939F93AF9329
:10078000BF93EF93FF9381EC91E00E94F701FF91FB
:10079000EF91BF91AF919F918F917F916F915F91F9
:1007A0004F913F912F910F900FBE0F901F90189572
:1007B0001F920F920FB60F9211242F938F939F9336
:1007C000EF93FF93E091D101F091D2018081E0910C
:1007D000D701F091D80182FD1BC090818091DA0190
:1007E0008F5F8F732091DB01821741F0E091DA0176
:1007F000F0E0EF53FE4F958F8093DA01FF91EF9178
:100800009F918F912F910F900FBE0F901F90189571
:100810008081F4CFCF93DF93CDB7DEB7A1970FB62A
:10082000F894DEBF0FBECDBF789484B5826084BDDE
:1008300084B5816084BD85B5826085BD85B58160E4
:1008400085BD80916E00816080936E001092810062
:10085000809181008260809381008091810081601D
:1008600080938100809180008160809380008091DE
:10087000B10084608093B1008091B000816080936A
:10088000B00080917A00846080937A0080917A0031
:10089000826080937A0080917A00816080937A00F0
:1008A00080917A00806880937A001092C10067E09E
:1008B00070E089E391E00E94A1026DE070E082E1C6
:1008C00091E00E94A102E091D101F091D20182E079
:1008D0008083E091CD01F091CE011082E091CF01B3
:1008E000F091D00180E180831092D901E091D5018F
:1008F000F091D60186E08083E091D301F091D4019C
:10090000808180618083E091D301F091D401808166
:1009100088608083E091D301F091D4018081806868
:100920008083E091D301F091D40180818F7D808319
:1009300062E370E080E090E00E94470182ED90E089
:100940000E94E8028DEB90E00E94660219A28E01DF
:100950000F5D1F4F20E032EC41E050E08AE0882E2E
:10096000912CA12CB12C7E018BE1E80EF11CCA0167
:10097000B901A50194010E942805605DF801629308
:100980008F01EE15FF0599F7CF010E94DB028EE47F
:1009900091E00E94DB0200E010E082E091E00E9422
:1009A000E80247E050E069E371E081E591E00E94F0
:1009B000080364EF71E080E090E00E9447014DE0A1
:1009C00050E062E171E08DE591E00E94080381EF63
:1009D00090E00E94E80260EB74E080E090E00E940A
:1009E000470101151105C9F20E94E3018823A9F20C
:1009F0000E940000D2CFE1ECF1E01382128288EE77
:100A000093E0A0E0B0E084839583A683B78384E07D
:100A100091E09183808385EC90E09587848784ECD6
:100A200090E09787868780EC90E0918B808B81ECBB
:100A300090E0938B828B82EC90E0958B848B86EC9C
:100A400090E0978B868B118E128E138E148E0895E4
:100A5000A1E21A2EAA1BBB1BFD010DC0AA1FBB1FC2
:100A6000EE1FFF1FA217B307E407F50720F0A21B34
:100A7000B30BE40BF50B661F771F881F991F1A94A1
:100A800069F760957095809590959B01AC01BD01CB
:100A9000CF010895EE0FFF1F0590F491E02D09940A
:040AA000F894FFCFF8
:100AA4000000000019027901A6018102D701B501F5
:100AB400C9010C6A010B6E010A72010976010879F9
:100AC40001077C01067F0105820104850103880179
:100AD400028B01008E010194010D9A010E9E010FFB
:100AE400A10110A40111A70112AA0113B1010D0A59
:100AF400004C6566742068656164657200526967BC
:100B04006874206865616465720044313200443160
:100B14003100443130004439004438004437004443
:100B24003600443500443400443300443200443039
:100B34002F52580044312F5458004431330041306F
:100B44000041310041320041330041342F534441CC
:080B54000041352F53434C0012
:00000001FF
